{
  "contractName": "Storage",
  "abi": [
    {
      "stateMutability": "payable",
      "type": "fallback",
      "payable": true
    },
    {
      "inputs": [],
      "name": "num",
      "outputs": [
        {
          "internalType": "uint256",
          "name": "",
          "type": "uint256"
        }
      ],
      "stateMutability": "view",
      "type": "function",
      "constant": true
    },
    {
      "inputs": [
        {
          "internalType": "uint256",
          "name": "number",
          "type": "uint256"
        }
      ],
      "name": "store",
      "outputs": [],
      "stateMutability": "nonpayable",
      "type": "function"
    },
    {
      "inputs": [],
      "name": "getStorage",
      "outputs": [
        {
          "internalType": "uint256",
          "name": "",
          "type": "uint256"
        }
      ],
      "stateMutability": "view",
      "type": "function",
      "constant": true
    }
  ],
  "bytecode": "0x608060405234801561001057600080fd5b5061010c806100206000396000f3fe60806040526004361060335760003560e01c80633408f73a1460365780634e70b1dc14605e5780636057361d146086576034565b5b005b348015604157600080fd5b50604860bd565b6040518082815260200191505060405180910390f35b348015606957600080fd5b50607060c6565b6040518082815260200191505060405180910390f35b348015609157600080fd5b5060bb6004803603602081101560a657600080fd5b810190808035906020019092919050505060cc565b005b60008054905090565b60005481565b806000819055505056fea2646970667358221220aa6ca28e238fc8f67276846bd9376d0a18d1e55a5200ef475b56b247a624b71164736f6c63430006010033",
  "source": "pragma solidity >=0.6.0 <0.7.0;\r\n\r\ncontract Storage {\r\n    \r\n    uint public num;\r\n    \r\n    function store(uint number) public {\r\n        num = number;\r\n    }\r\n    \r\n    function getStorage() public view returns(uint) {\r\n        return num;\r\n        \r\n    }\r\n\r\n    fallback() external payable {\r\n\r\n    }\r\n}\r\n",
  "sourcePath": "C:/storageTruffle/contracts/storage.sol",
  "compiler": {
    "name": "solc",
    "version": "0.6.1+commit.e6f7d5a4.Emscripten.clang"
  },
  "schemaVersion": "3.2.3",
  "updatedAt": "2020-08-11T04:57:54.275Z",
  "networkType": "ethereum",
  "devdoc": {
    "methods": {}
  },
  "userdoc": {
    "methods": {}
  }
}